{"nodeId":"03af0ed6052cf28d670665549bc86f4b721c9fdb309d40c58f5811f63966e005d0","channelId":"63c75c555d712a81998ddbaf9ce1d55b153fc7cb71441ae1782143bb6b04b95d","state":"NORMAL","data":{"commitments":{"localParams":{"nodeId":"03af0ed6052cf28d670665549bc86f4b721c9fdb309d40c58f5811f63966e005d0","channelKeyPath":{"path":[1,2,3,4,5]},"dustLimitSatoshis":1100,"maxHtlcValueInFlightMsat":150000000,"channelReserveSatoshis":10000,"htlcMinimumMsat":0,"toSelfDelay":144,"maxAcceptedHtlcs":100,"isFunder":true,"defaultFinalScriptPubKey":"001459c9d053beb25049fd2d35d621f5c56fd4f2415d","globalFeatures":"","localFeatures":"00"},"remoteParams":{"nodeId":"039dc0e0b1d25905e44fdf6f8e89755a5e219685840d0bc1d28d3308f9628a3585","dustLimitSatoshis":546,"maxHtlcValueInFlightMsat":5000000000,"channelReserveSatoshis":120000,"htlcMinimumMsat":1,"toSelfDelay":720,"maxAcceptedHtlcs":30,"fundingPubKey":"02184615bf2294acc075701892d7bd8aff28d78f84330e8931102e537c8dfe92a3","revocationBasepoint":"020beeba2c3015509a16558c35b930bed0763465cf7a9a9bc4555fd384d8d383f6","paymentBasepoint":"02e63d3b87e5269d96f1935563ca7c197609a35a928528484da1464eee117335c5","delayedPaymentBasepoint":"033dea641e24e7ae550f7c3a94bd9f23d55b26a649c79cd4a3febdf912c6c08281","htlcBasepoint":"0274a89988063045d3589b162ac6eea5fa0343bf34220648e92a636b1c2468a434","globalFeatures":"00","localFeatures":"82"},"channelFlags":1,"localCommit":{"index":2,"spec":{"htlcs":[{"direction":"IN","add":{"channelId":"63c75c555d712a81998ddbaf9ce1d55b153fc7cb71441ae1782143bb6b04b95d","id":123,"amountMsat":24000,"paymentHash":"a3c1ec535f712a81998ddbaf9ce1d55b153fc7cb71441ae1782143bb6b04b95a","cltvExpiry":12,"onionRoutingPacket":"0000000000000000000000000000000000000000000000000000000000000000"}}],"feeratePerKw":45000,"toLocalMsat":4000000000,"toRemoteMsat":8000000000},"publishableTxs":{"commitTx":"0200000000010163c75c555d712a81998ddbaf9ce1d55b153fc7cb71441ae1782143bb6b04b95d0000000000a325818002bc893c0000000000220020ae8d04088ff67f3a0a9106adb84beb7530097b262ff91f8a9a79b7851b50857f00127a0000000000160014be0f04e9ed31b6ece46ca8c17e1ed233c71da0e9040047304402203b280f9655f132f4baa441261b1b590bec3a6fcd6d7180c929fa287f95d200f80220100d826d56362c65d09b8687ca470a31c1e2bb3ad9a41321ceba355d60b77b79014730440220539e34ab02cced861f9c39f9d14ece41f1ed6aed12443a9a4a88eb2792356be6022023dc4f18730a6471bdf9b640dfb831744b81249ffc50bd5a756ae85d8c6749c20147522102184615bf2294acc075701892d7bd8aff28d78f84330e8931102e537c8dfe92a3210367d50e7eab4a0ab0c6b92aa2dcf6cc55a02c3db157866b27a723b8ec47e1338152ae74f15a20","htlcTxsAndSigs":[]}},"remoteCommit":{"index":2,"spec":{"htlcs":[{"direction":"OUT","add":{"channelId":"63c75c555d712a81998ddbaf9ce1d55b153fc7cb71441ae1782143bb6b04b95d","id":123,"amountMsat":24000,"paymentHash":"a3c1ec535f712a81998ddbaf9ce1d55b153fc7cb71441ae1782143bb6b04b95a","cltvExpiry":12,"onionRoutingPacket":"0000000000000000000000000000000000000000000000000000000000000000"}}],"feeratePerKw":45000,"toLocalMsat":4000000000,"toRemoteMsat":8000000000},"txid":"b70c3314af259029e7d11191ca0fe6ee407352dfaba59144df7f7ce5cc1c7b51","remotePerCommitmentPoint":"0286f6253405605640f6c19ea85a51267795163183a17df077050bf680ed62c224"},"localChanges":{"proposed":[],"signed":[],"acked":[]},"remoteChanges":{"proposed":[],"acked":[],"signed":[]},"localNextHtlcId":5,"remoteNextHtlcId":5,"originChannels":{"4200":{"originChannelId":"63c75c555d712a81998ddbaf9ce1d55b153fc7cb71441ae1782143bb6b04b95d","originHtlcId":4201,"amountMsatIn":5001,"amountMsatOut":5000}},"remoteNextCommitInfo":"033dea641e24e7ae550f7c3a94bd9f23d55b26a649c79cd4a3febdf912c6c08281","commitInput":{"outPoint":"63c75c555d712a81998ddbaf9ce1d55b153fc7cb71441ae1782143bb6b04b95d:1","txOut":{"amount":{"amount":12000000},"publicKeyScript":""},"redeemScript":""},"remotePerCommitmentSecrets":null,"channelId":"5db9046bbb432178e11a4471cbc73f155bd5e19cafdb8d99812a715d555cc763"},"shortChannelId":"501x1x0","buried":true,"channelUpdate":{"signature":"","chainHash":"06226e46111a0b59caaf126043eb5bbf28c34f3a5e332a1fc7b2b73cf188910f","shortChannelId":"501x1x0","timestamp":1556526043,"messageFlags":1,"channelFlags":0,"cltvExpiryDelta":144,"htlcMinimumMsat":1,"feeBaseMsat":1000,"feeProportionalMillionths":100,"htlcMaximumMsat":1200000}}}